:020000040000fa
:080000000002040000000000f2
:020000040000fa
:100008009a0200009a0200009a0200009a02000078
:100018009a0200009a0200009a0200009a02000068
:100028009a0200009a0200009a0200009a02000058
:100038009a0200009a0200009a0200009a02000048
:020000040000fa
:020000040000fa
:100400000f8020000e9f20000e01880000000000d9
:10041000000020000000e000020032000001200087
:10042000200288000c000700404a20000100200044
:1004300011000700000020000000e0000200320070
:1004400000000200000000006a040200000000003a
:100450000040da000000fe004440a9000000200037
:100460000000e0000300320000002000a00188002e
:100470004440a80000000600910188008000780038
:100480000000eb0015003700e280400032a0b4000d
:100490009101ba00e280400032a0b4009102ba009b
:1004a000e280400032a0b4000002eb00472bde00e7
:1004b000f507b200602ce10004003a000059eb009f
:1004c0008301e900fdff3e00040037006128e100e0
:1004d000010032000082eb00040007001101ba00a5
:1004e0000200e000e8ff3a00000006003159ba00bf
:1004f0008301e9000c0032002159ba008301e900b0
:10050000080032000400e00003003a00e2804000ee
:1005100032a0b400f5ff370011d9ba008301e90019
:10052000faff3a008100e800e180400032a0b40008
:0c053000000006000040da000000fe00a1
:020000040000fa
:10053c000200fa00000f780002e2a90002c2a90032
:10054c0002a2a8000282a900141080000400a100dd
:10055c000410a0000420a0000430a0001410880097
:10056c0004e2a9000402a80006c2a80006a2a80082
:10057c000682a8000662a9000642a9000622a9006c
:10058c000602a9001e027800140278006f42620075
:10059c000482fb00541088000080fa000000060062
:1005ac000000fa00000000002410800061026200cc
:1005bc00e00f5200fcff3a00000000002410800005
:1005cc0064026200e00f5200fcff3a0000000000e1
:1005dc002410800068026200e00f5200fcff3a0019
:1005ec00000000002410800070026200e00f520036
:1005fc00fcff3a000000000044108000640262001e
:10060c00e00f5200fcff3a000080fa0000000600e8
:10061c000200fa00000f78001416800004427800e3
:10062c00614262009e0278000482fb00610262005b
:10063c0095039000e6ff2f0006836300060272000c
:10064c0094029800141680000402d10061426200ea
:10065c0004424200614262009e0278000482fb0068
:10066c006102620095039000e6ff2f000683630091
:10067c000602720094029800141680004222de00da
:10068c0061426200250020000522dd00614262000b
:10069c009e0278000482fb006102620095039000c8
:1006ac00e6ff2f0006836300060272009402980096
:1006bc00141680004322de006142620035002000e7
:1006cc000522dd00614262009e0278000482fb007c
:1006dc006102620095039000e6ff2f000683630021
:1006ec0006027200940298000080fa0000000600d6
:1006fc000600fa00000f78001107980022079800f6
:10070c002e02900014029000e14262001e0278005a
:10071c00140290006142620084cf52000e0032003d
:10072c000028200001002000760007002e02900017
:10073c0014029000614262009e0290000482fb0051
:10074c006102620095039000e6ff2f0006836300b0
:10075c0006027200940298002e029000140290007f
:10076c000474a1008482fb001e0278001402900025
:10077c000474a1000482fb00848f52000e0034002c
:10078c001e029000140290000474a1000442e800c0
:10079c000474a1009e0290000483fb00f407200067
:1007ac00040263009503900006f82f000683630093
:1007bc0006027200940298002e029000140290001f
:1007cc000474a1008482fb001e02780014029000c5
:1007dc000474a1000482fb00848f52000e003d00c3
:1007ec001e029000140290000474a1000442e9005f
:1007fc000474a1009e0290000483fb00f407200007
:10080c00040263009503900006f82f000683630032
:10081c000602720094029800000a200001002000d9
:10082c00380007000080fa00000006000200fa0001
:10083c00000f780004108000044278009e027800bb
:10084c00844a78000080fa00000006000000fa00dc
:10085c00030007000d0007000080fa0000000600ee
:10086c000000fa0004122100143a88000002eb0088
:10087c00243a88000002eb00443a8800040021006e
:10088c00743a88000080fa00000006000000fa00ac
:10089c00f4002000041688000002eb0004278800f6
:1008ac000002eb00241688000002eb0044168800be
:1008bc000002eb00142788000002eb00641688008d
:1008cc000080fa00000006001000fa00dfff0700ad
:1008dc000e0078004eff0700680247000400780005
:1008ec00d2ff07006c034700e80247006402470090
:1008fc000601780085007800040078007cff070072
:04090c00f5ff3700bc
:020000040000fa
:10091000f03fb1000180b10006003500ee03090090
:1009200000000000403fb1000180b100fbff3d002e
:100930001000b000203fb000020035000080090028
:080940000000000000000600a9
:020000040000fa
:0409480000000000ab
:020000040000fa
:0200000401f009
:04000000ffff0000fe
:020000040000fa
:0200000401f009
:04000800ffff0000f6
:020000040000fa
:0200000401f009
:04000c00d9ff000018
:020000040000fa
:0200000401f009
:04001000fbff0000f2
:020000040000fa
:0200000401f009
:040014004fff00009a
:020000040000fa
:0200000401f009
:040018007fff000066
:020000040000fa
:0200000401f009
:04001c00ffff0000e2
:00000001FF
