:020000040000fa
:080000000002040000000000f2
:020000040000fa
:100008009a0200009a0200009a0200009a02000078
:100018009a0200009a0200009a0200009a02000068
:100028009a0200009a0200009a0200009a02000058
:100038009a0200009a0200009a0200009a02000048
:020000040000fa
:020000040000fa
:100400000f8020000e9f20000e01880000000000d9
:10041000000020000000e000020032000001200087
:10042000200288000c000700808e200001002000c0
:1004300011000700000020000000e0000200320070
:100440000000020000000000ae08020000000000f2
:100450000040da000000fe004440a9000000200037
:100460000000e0000300320000002000a00188002e
:100470004440a80000000600910188008000780038
:100480000000eb0015003700e280400032a0b4000d
:100490009101ba00e280400032a0b4009102ba009b
:1004a000e280400032a0b4000002eb00472bde00e7
:1004b000f507b200602ce10004003a000059eb009f
:1004c0008301e900fdff3e00040037006128e100e0
:1004d000010032000082eb00040007001101ba00a5
:1004e0000200e000e8ff3a00000006003159ba00bf
:1004f0008301e9000c0032002159ba008301e900b0
:10050000080032000400e00003003a00e2804000ee
:1005100032a0b400f5ff370011d9ba008301e90019
:10052000faff3a008100e800e180400032a0b40008
:10053000000006000040da000000fe00889fbe00b8
:100540008a9fbe008c1f78006b000700720033008a
:1005500003866c006450e1002e0032006420e1004c
:10056000330032006150e1002f0032006120e100d1
:100570003100320085855500eb07b00009002000ee
:1005800008042000050037000804440089844c005a
:100590000a0031000603430087834b00000153002b
:1005a00081815b00f8ff33000203be000800a00059
:1005b0000804440089844c00f6ff3900c639dd0088
:1005c0008301730001003200130020008904d10070
:1005d0000884d3000998a300050032000800a70092
:1005e0000300a0008904d1000884d3008b05e80033
:1005f0008904d1000884d3000001eb000281d200fd
:100600001700070001f0a1000cf0a70001f0a00006
:100610004a0037006420e1004c0032000801be00af
:100620000200be00f7ff37006120e1004700320002
:100630006000b800f3ff37000000200001f8270039
:10064000f0ff37001400200077003700f4ff2f0080
:10065000750037004f89de00820178008d00370079
:1006600081002000618055000b003d000b00200040
:1006700061fe2f000100e1001d0034008281710045
:10068000610164008904d1000884d3000000e800ff
:10069000faff3a007100200061006400030070005e
:1006a000020060000900320061044400e0844c0054
:1006b0000988a500050032008b05e8006808e10004
:1006c00002003a008904d1000884d300f20f200010
:1006d0000258e10005003d00c75ddd00f907b200ea
:1006e0008980750008007800000006000bf82700dc
:1006f0008b007800000005000004be00a400070085
:100700000003be000405be000200be00a0000700fa
:10071000844f7500000006000200be006450e10036
:10072000050036006420e100020036000968a300dd
:1007300001003a000800be000160a0004f067800ea
:100740004f05be004f04be0000000600f0ff2f0062
:10075000f1ff2700f9ff3700889fbe008a9fbe0087
:100760008c1f7800e4ff0700ebff330003866c006a
:100770006450e100240032006420e10027003200d0
:100780006150e100220032006120e10021003200ce
:100790008b854200eb07b1000134b800003ab80085
:1007a0000804420089844a00013ab8000030b800c9
:1007b0008880400009014a00040033000000400026
:1007c00081804800020149008b05e900c909dd006c
:1007d000830170000100320013002000c814de0005
:1007e0004814dd004709de001200b200c808de0030
:1007f000088470009aff070001f0a1000cf0a70028
:1008000001f0a000cdff37006120e100cfff3200f2
:100810000801be000200be00f7ff37006150e10092
:10082000fcff3a00c9ff3700889fbe008a9fbe00c8
:10083000841f7800b0ff07004f00780011003300dc
:10084000f0ff2f00838f6c0006003b00040565005d
:100850000a00a7000800370009f0a60010002000d9
:1008600008003700820f5400838f5c0003003900ba
:100870001000200001003e000000200009f0a70049
:100880000000ea004f05be004f04be000000e0007b
:1008900000000600881f7800030478000300e000d1
:1008a00007003d0060001000e080180060011900a2
:1008b000e081190002003b0001f02d000300370029
:1008c0000400070008f0a70001f0a0004f04780022
:1008d00000000600889fbe008a9fbe000082700054
:1008e0000402710004827100260032000004be0080
:1008f0000200be006011b8006b09200095022000c4
:100900000182cf000a0039000541b1000082cf000a
:10091000070039000541b1000982cf000400390009
:100920000541b1000882cf00010039000541b10046
:1009300005425200120032000a003b008281710021
:10094000610164008100d1000080d3008984d3005c
:100950000884d3008b05e8000442e800f7ff3a0062
:10096000070037000804440089844c000000480058
:10097000818048008b05e9000442e900f9ff3a0054
:1009800037ff07004f05be004f04be000000060001
:10099000c70ade00f107b200f50fb200080032000e
:1009a000e1cf4200020032000170a00024000500e7
:1009b000810f7000010032000408050044000500aa
:1009c000810f700002003a00140005008502e90062
:1009d0000000400081c04800fcff3b000170a00007
:0409e00024000500ea
:020000040000fa
:1009e4000000fa0021e3a80021a3a9000419800053
:1009f4000480a1000490a100041988000419800057
:100a04000450a0000460a0000470a0000419880031
:100a14002043a8002023a8002003a90023a3a900a1
:100a240023c3a90023e3a9002383a9002343a90026
:100a3400141980000420a0000430a1000440a10087
:100a44000450a100141988002203a90025e3a90079
:100a540025198000f40f2e00848262000410200007
:100a6400050272002419880014c0b3000400780041
:100a740024e3b7000080fa00000006000200fa0038
:100a8400004f780029e3a8001e4278006f426200fc
:100a94000482fb006f0262004822dd0046198000d8
:100aa400f50f2f00850263000502720044198800c7
:100ab40028e3a8000080fa00000006000000fa0005
:100ac4002003a800000000000419800061026200f5
:100ad400e00f5200fcff3a000080fa00000006001c
:100ae4000400fa00000f7800214798002e4090007f
:100af400e2ff0700f1ff0700041880000500200052
:100b04001e03780064039800750398001e007800a3
:100b1400060007001e0078001f0007001e00780072
:100b24004c0007000080fa00000006000200fa00f2
:100b3400000f78001e027800f40290006402900016
:100b4400e00f5200e08f5a0002003d00f43fb00075
:100b54000580b000462bdd004a22de00040273004b
:100b6400caaade000400be00b9fe07000002be00ef
:100b7400a2992900931424000400be00f5fe070086
:100b84000002be001e037800440398005503980039
:100b94000080fa00000006000200fa00881f7800b6
:100ba400000f78001e02780044039000d4039000e4
:100bb4001e0278001402be0018c0b3000401be0077
:100bc4000600be00a0fe070000027800e00f5200fd
:100bd40001003c000044eb00e04f540015003200db
:100be4001e027800d4029000440290001e03780094
:100bf400048bbe001e0278001402be000401be0075
:100c0400a0992900911424004bfe07000002be00a5
:100c140002002000832c24000400be00cdfe070047
:100c24000002be001e0378002403980035039800d8
:100c3400050037001e027800d402900044029000a0
:100c44001e037800048bbe004f0478000080fa0075
:100c5400000006000200fa00881f7800000f7800e8
:100c64001e027800b40290002402900018c0b30061
:100c740002002000030a24000400be0070fe0700e6
:100c840000027800e00f5200010035000044eb0040
:100c9400e04f5400040032009e027800050a9000e0
:100ca4000400a100840a98001e027800b402900097
:100cb4002402900018c0b30002002000432b24003b
:100cc4000400be0060fe070000027800e00f52003e
:100cd40001003c000044eb00e04f540004003200eb
:100ce4009e027800050a90000400a000840a98007f
:100cf4001e027800040a90000402d10061426200de
:100d04000482fb00e10f52001a0032001e02780038
:100d1400040a9000614262000482fb0061026200e6
:100d240016168000e5ff2f0085026300050272009d
:100d340014168800141680006102620004f0a700f3
:100d44000402ea000402e9004f22de0004427800b3
:100d54000482fb0061026200040242001616800055
:100d6400d5ff2f0085026300050272001416880067
:100d740010003700141680006102620004f0a7001e
:100d84000402ea000402e9004f22de000442780073
:100d94000482fb0061026200040242001616800015
:100da400d5ff2f0085026300050272001416880027
:100db400000000004f0478000080fa0000000600e4
:100dc4000200fa00000f780002e2a90002c2a900a2
:100dd40002a2a8000282a900141080000400a1004d
:100de4000410a0000420a0000430a0001410880007
:100df40004e2a9000402a80006c2a80006a2a800f2
:100e04000682a8000662a9000642a9000622a900db
:100e14000602a9001e027800140278006f426200e4
:100e24000482fb00541088000080fa0000000600d1
:100e34000000fa000000000024108000610262003b
:100e4400e00f5200fcff3a00000000002410800074
:100e540064026200e00f5200fcff3a000000000050
:100e64002410800068026200e00f5200fcff3a0088
:100e7400000000002410800070026200e00f5200a5
:100e8400fcff3a000000000044108000640262008d
:100e9400e00f5200fcff3a000080fa000000060058
:100ea4000200fa00000f7800141680000442780053
:100eb400614262009e0278000482fb0061026200cb
:100ec40095039000e6ff2f0006836300060272007c
:100ed40094029800141680000402d100614262005a
:100ee40004424200614262009e0278000482fb00d8
:100ef4006102620095039000e6ff2f000683630001
:100f04000602720094029800141680004222de0049
:100f140061426200250020000522dd00614262007a
:100f24009e0278000482fb00610262009503900037
:100f3400e6ff2f0006836300060272009402980005
:100f4400141680004322de00614262003500200056
:100f54000522dd00614262009e0278000482fb00eb
:100f64006102620095039000e6ff2f000683630090
:100f740006027200940298000080fa000000060045
:100f84000600fa00000f7800110798002207980065
:100f94002e02900014029000e14262001e027800ca
:100fa400140290006142620084cf52000e003200ad
:100fb4000028200001002000760007002e02900087
:100fc40014029000614262009e0290000482fb00c1
:100fd4006102620095039000e6ff2f000683630020
:100fe40006027200940298002e02900014029000ef
:100ff4000474a1008482fb001e0278001402900095
:101004000474a1000482fb00848f52000e0034009b
:101014001e029000140290000474a1000442e8002f
:101024000474a1009e0290000483fb00f4072000d6
:10103400040263009503900006f82f000683630002
:1010440006027200940298002e029000140290008e
:101054000474a1008482fb001e0278001402900034
:101064000474a1000482fb00848f52000e003d0032
:101074001e029000140290000474a1000442e900ce
:101084000474a1009e0290000483fb00f407200076
:10109400040263009503900006f82f0006836300a2
:1010a4000602720094029800000a20000100200049
:1010b400380007000080fa00000006000200fa0071
:1010c400000f780004108000044278009e0278002b
:1010d400844a78000080fa00000006000000fa004c
:1010e400030007000d0007000080fa00000006005e
:1010f4000000fa0004122100143a88000002eb00f8
:10110400243a88000002eb00443a880004002100dd
:10111400743a88000080fa00000006000000fa001b
:10112400f4002000041688000002eb000427880065
:101134000002eb00241688000002eb00441688002d
:101144000002eb00142788000002eb0064168800fc
:101154000080fa00000006001000fa00dfff07001c
:101164000e0078004eff0700680247000400780074
:10117400d2ff07006c034700e802470064024700ff
:101184000601780085007800040078007cff0700e1
:04119400f5ff37002c
:020000040000fa
:10119800f03fb1000180b10006003500ee03090000
:1011a80000000000403fb1000180b100fbff3d009e
:1011b8001000b000203fb000020035000080090098
:0811c800000000000000060019
:020000040000fa
:0411d000000000001b
:020000040000fa
:0200000401f009
:04000000ffff0000fe
:020000040000fa
:0200000401f009
:04000800ffff0000f6
:020000040000fa
:0200000401f009
:04000c00d9ff000018
:020000040000fa
:0200000401f009
:04001000fbff0000f2
:020000040000fa
:0200000401f009
:040014004fff00009a
:020000040000fa
:0200000401f009
:040018007fff000066
:020000040000fa
:0200000401f009
:04001c00ffff0000e2
:00000001FF
