:020000040000fa
:080000000002040000000000f2
:020000040000fa
:100008009a0200009a0200009a0200009a02000078
:100018009a0200009a0200009a0200009a02000068
:100028009a0200009a0200009a0200009a02000058
:100038009a0200009a0200009a0200009a02000048
:100048009a0200009a0200009a0200009a02000038
:100058009a0200009a0200009a0200009a02000028
:10006800840300009a0200009a0200009a0200002d
:100078009a0200009a0200009a0200009a02000008
:100088009a0200009a0200009a0200009a020000f8
:100098009a0200009a0200009a0200009a020000e8
:1000a8009a0200009a0200009a0200009a020000d8
:1000b8009a0200009a0200009a0200009a020000c8
:1000c8009a0200009a0200009a0200009a020000b8
:1000d8009a0200009a0200009a0200009a020000a8
:1000e8009a0200009a0200009a0200009a02000098
:1000f8009a0200009a0200009a0200009a02000088
:100108009a0200009a0200009a0200009a02000077
:100118009a0200009a0200009a0200009a02000067
:100128009a0200009a0200009a0200009a02000057
:100138009a0200009a0200009a0200009a02000047
:100148009a0200009a0200009a0200009a02000037
:100158009a0200009a0200009a0200009a02000027
:100168009a0200009a0200009a0200009a02000017
:100178009a0200009a0200009a0200009a02000007
:100188009a0200009a0200009a0200009a020000f7
:100198009a0200009a0200009a0200009a020000e7
:1001a8009a0200009a0200009a0200009a020000d7
:1001b8009a0200009a0200009a0200009a020000c7
:1001c8009a0200009a0200009a0200009a020000b7
:1001d8009a0200009a0200009a0200009a020000a7
:1001e8009a0200009a0200009a0200009a02000097
:0801f8009a0200009a020000c7
:020000040000fa
:100208009a0200009a0200009a0200009a02000076
:100218009a0200009a0200009a0200009a02000066
:100228009a0200009a0200009a0200009a02000056
:100238009a0200009a0200009a0200009a02000046
:100248009a0200009a0200009a0200009a02000036
:100258009a0200009a0200009a0200009a02000026
:10026800840300009a0200009a0200009a0200002b
:100278009a0200009a0200009a0200009a02000006
:100288009a0200009a0200009a0200009a020000f6
:100298009a0200009a0200009a0200009a020000e6
:1002a8009a0200009a0200009a0200009a020000d6
:1002b8009a0200009a0200009a0200009a020000c6
:1002c8009a0200009a0200009a0200009a020000b6
:1002d8009a0200009a0200009a0200009a020000a6
:1002e8009a0200009a0200009a0200009a02000096
:1002f8009a0200009a0200009a0200009a02000086
:100308009a0200009a0200009a0200009a02000075
:100318009a0200009a0200009a0200009a02000065
:100328009a0200009a0200009a0200009a02000055
:100338009a0200009a0200009a0200009a02000045
:100348009a0200009a0200009a0200009a02000035
:100358009a0200009a0200009a0200009a02000025
:100368009a0200009a0200009a0200009a02000015
:100378009a0200009a0200009a0200009a02000005
:100388009a0200009a0200009a0200009a020000f5
:100398009a0200009a0200009a0200009a020000e5
:1003a8009a0200009a0200009a0200009a020000d5
:1003b8009a0200009a0200009a0200009a020000c5
:1003c8009a0200009a0200009a0200009a020000b5
:1003d8009a0200009a0200009a0200009a020000a5
:1003e8009a0200009a0200009a0200009a02000095
:0803f8009a0200009a020000c5
:020000040000fa
:100400002f8020000e9f20000e01880000000000b9
:10041000000020000000e000020032000001200087
:10042000200288000c000700e044200001002000aa
:1004300011000700000020000000e0000200320070
:10044000000002000000000046040200000000005e
:100450000040da000000fe004440a9000000200037
:100460000000e0000300320000002000a00188002e
:100470004440a80000000600910188008000780038
:100480000000eb0015003700e280400032a0b4000d
:100490009101ba00e280400032a0b4009102ba009b
:1004a000e280400032a0b4000002eb00472bde00e7
:1004b000f507b200602ce10004003a000059eb009f
:1004c0008301e900fdff3e00040037006128e100e0
:1004d000010032000082eb00040007001101ba00a5
:1004e0000200e000e8ff3a00000006003159ba00bf
:1004f0008301e9000c0032002159ba008301e900b0
:10050000080032000400e00003003a00e2804000ee
:1005100032a0b400f5ff370011d9ba008301e90019
:10052000faff3a008100e800e180400032a0b40008
:0c053000000006000040da000000fe00a1
:020000040000fa
:10053c000200fa00000f780002e2a90002c2a90032
:10054c0002a2a8000282a900141080000400a100dd
:10055c000410a0000420a0000430a0001410880097
:10056c0004e2a9000402a80006c2a80006a2a80082
:10057c000682a8000662a9000642a9000622a9006c
:10058c000602a9001e007800240007001e02780055
:10059c00140278006f4262000482fb0004024200e5
:1005ac00541088000080fa00000006000000fa00d9
:1005bc00000000002410800061026200e00f520075
:1005cc00fcff3a000000000024108000640262006e
:1005dc00e00f5200fcff3a000000000024108000e5
:1005ec0068026200e00f5200fcff3a0000000000bd
:1005fc002410800070026200e00f5200fcff3a00f1
:10060c00000000004410800064026200e00f520001
:10061c00fcff3a000080fa00000006000200fa001d
:10062c00000f7800141680000442780061426200ca
:10063c009e0278000482fb00610262009503780040
:10064c00e6ff2f000683630006027200840a78001e
:10065c00141680000402d100614262000442420080
:10066c00614262009e0278000482fb00610262001b
:10067c0095037800e6ff2f000683630006027200e4
:10068c00840a7800141680004222de006142620067
:10069c00250020000522dd00614262009e027800e8
:1006ac000482fb006102620095037800e6ff2f00d4
:1006bc000683630006027200840a78001416800018
:1006cc004322de0061426200350020000522dd007d
:1006dc00614262009e0278000482fb0061026200ab
:1006ec0095037800e6ff2f00068363000602720074
:1006fc00840a78000080fa00000006003600f8003a
:10070c00809fbe00829fbe00849fbe00869fbe005d
:10071c000200fa004410800064026200e00f5200f4
:10072c0031003a004510800004022000048262006f
:10073c00e00f520004003a0004108000040f78000f
:10074c009aff07002800370004108000044278004c
:10075c006142620061426200614262000482fb00fd
:10076c006102620006408000e5ff2f0085026300f5
:10077c00050272000440880005108000e40320008c
:10078c00048262000402d100044278007f426200bd
:10079c000482fb007f0262000402420006408000db
:1007ac0015fc2f00850263000502720004408800ce
:1007bc0005108000040c2000048262004622de003a
:1007cc0004427800634262000482fb006302620010
:1007dc004622dd0006408000f5f32f008502630001
:1007ec0005027200044088000080fa004f03be002e
:1007fc004f02be004f01be004f00be003600f90094
:10080c00004006000000fa00030007000d0007007e
:10081c000080fa00000006000000fa00041221001b
:10082c00143a88000002eb00243a88000002eb0026
:10083c00443a880004002100743a88000080fa00d1
:10084c00000006000000fa00f400200004168800e6
:10085c000002eb00042788000002eb00241688003d
:10086c000002eb00441688000002eb0014278800fd
:10087c000002eb00641688000080fa0000000600fd
:10088c000000fa00040078000080fa000000060066
:020000040000fa
:10089c000008000002000000000000000000000042
:020000040000fa
:0200000401f009
:04000000ffff0000fe
:020000040000fa
:0200000401f009
:04000800ffff0000f6
:020000040000fa
:0200000401f009
:04000c00d9ff000018
:020000040000fa
:0200000401f009
:04001000fbff0000f2
:020000040000fa
:0200000401f009
:040014004fff00009a
:020000040000fa
:0200000401f009
:040018007fff000066
:020000040000fa
:0200000401f009
:04001c00ffff0000e2
:00000001FF
