:020000040000fa
:080000000002040000000000f2
:020000040000fa
:100008009a0200009a0200009a0200009a02000078
:100018009a0200009a0200009a0200009a02000068
:100028009a0200009a0200009a0200009a02000058
:100038009a0200009a0200009a0200009a02000048
:020000040000fa
:020000040000fa
:100400000f8020000e9f20000e01880000000000d9
:10041000000020000000e000020032000001200087
:10042000200288000c000700208c20000100200022
:1004300011000700000020000000e0000200320070
:100440000000020000000000b808020000000000e8
:100450000040da000000fe004440a9000000200037
:100460000000e0000300320000002000a00188002e
:100470004440a80000000600910188008000780038
:100480000000eb0015003700e280400032a0b4000d
:100490009101ba00e280400032a0b4009102ba009b
:1004a000e280400032a0b4000002eb00472bde00e7
:1004b000f507b200602ce10004003a000059eb009f
:1004c0008301e900fdff3e00040037006128e100e0
:1004d000010032000082eb00040007001101ba00a5
:1004e0000200e000e8ff3a00000006003159ba00bf
:1004f0008301e9000c0032002159ba008301e900b0
:10050000080032000400e00003003a00e2804000ee
:1005100032a0b400f5ff370011d9ba008301e90019
:10052000faff3a008100e800e180400032a0b40008
:10053000000006000040da000000fe00889fbe00b8
:100540008a9fbe008c1f78006a000700710033008c
:1005500003866c006450e1002e0032006420e1004c
:10056000330032006150e1002f0032006120e100d1
:100570003100320085855500eb07b00009002000ee
:1005800008042000050037000804440089844c005a
:100590000a0031000603430087834b00000153002b
:1005a00081815b00f8ff33000203be000800a00059
:1005b0000804440089844c00f6ff3900c639dd0088
:1005c0008301730001003200130020008904d10070
:1005d0000884d3000998a300050032000800a70092
:1005e0000300a0008904d1000884d3008b05e80033
:1005f0008904d1000884d3000001eb000281d200fd
:100600001600070001f0a1000cf0a70001f0a00007
:10061000490037006420e1004b0032000801be00b1
:100620000200be00f7ff37006120e1004600320003
:100630006000b800f3ff37000000200001f8270039
:10064000f0ff37001400200076003700f4ff2f0081
:10065000740037006011b8008d0037008100200061
:10066000618055000b003d000b00200061fe2f0053
:100670000100e1001d00340082817100610164000d
:100680008904d1000884d3000000e800faff3a0092
:10069000710020006100640003007000020060002f
:1006a0000900320061044400e0844c000988a50080
:1006b000050032008b05e8006808e10002003a00fe
:1006c0008904d1000884d300f20f20000258e10011
:1006d00005003d00c75ddd00f907b20089807500a7
:1006e00008007800000006000bf827008b00780057
:1006f000000005000004be00940007000003be00d7
:100700000405be000200be0090000700844f750083
:10071000000006000200be006450e1000500360043
:100720006420e100020036000968a30001003a00dd
:100730000800be000160a0004f0678004f05be0013
:100740004f04be0000000600f0ff2f00f1ff27005d
:10075000f9ff3700889fbe008a9fbe008c1f78007b
:10076000e4ff0700ebff330003866c006450e100f8
:10077000240032006420e100270032006150e100d3
:10078000220032006120e100210032008b8542000e
:10079000eb07b1000134b800003ab8000804420089
:1007a00089844a00013ab8000030b80088804000cf
:1007b00009014a0004003300000040008180480025
:1007c000020149008b05e900c909dd0083017000c1
:1007d0000100320013002000c814de004814dd00c0
:1007e0004709de001200b200c808de00088470006d
:1007f0009aff070001f0a1000cf0a70001f0a00093
:10080000cdff37006120e100cfff32000801be00bc
:100810000200be00f7ff37006150e100fcff3a0024
:10082000c9ff3700889fbe008a9fbe00841f7800e2
:10083000b0ff07004f00780011003300f0ff2f00d9
:10084000838f6c0006003b00040565000a00a700ca
:100850000800370009f0a60010002000080037004b
:10086000820f5400838f5c000300390010002000c9
:1008700001003e000000200009f0a7000000ea008f
:100880004f05be004f04be000000e000000006005f
:10089000889fbe008a9fbe00008270000402710023
:1008a00004827100260032000004be000200be0077
:1008b0006011b8006b092000950220000182cf0072
:1008c0000a0039000541b1000082cf00070039005d
:1008d0000541b1000982cf00040039000541b10093
:1008e0000882cf00010039000541b10005425200e5
:1008f000120032000a003b00828171006101640035
:100900008100d1000080d3008984d3000884d30003
:100910008b05e8000442e800f7ff3a0007003700c3
:100920000804440089844c0000004800818048008d
:100930008b05e9000442e900f9ff3a0047ff070090
:100940004f05be004f04be0000000600c70ade00cf
:10095000f107b200f50fb20008003200e1cf42000b
:10096000020032000170a00024000500810f700019
:10097000010032000408050044000500810f7000ea
:1009800002003a00140005008502e9000000400062
:1009900081c04800fcff3b000170a000240005005e
:020000040000fa
:1009a0000000fa0021e3a80021a3a9000419800097
:1009b0000480a1000490a10004198800041980009b
:1009c0000450a0000460a0000470a0000419880076
:1009d0002043a8002023a8002003a90023a3a900e6
:1009e00023c3a90023e3a9002383a9002343a9006b
:1009f000141980000420a0000430a1000440a100cc
:100a00000450a100141988002203a90025e3a900bd
:100a100025198000f40f2e0084826200041020004b
:100a2000050272002419880014c0b3000400780085
:100a300024e3b7000080fa00000006000200fa007c
:100a4000004f780029e3a8001e4278006f42620040
:100a50000482fb006f0262004822dd00461980001c
:100a6000f50f2f008502630005027200441988000b
:100a700028e3a8000080fa00000006000000fa0049
:100a80002003a80000000000041980006102620039
:100a9000e00f5200fcff3a000080fa000000060060
:100aa0000400fa00000f7800214798002e409000c3
:100ab000e2ff0700f1ff0700041880000500200096
:100ac0001e03780064039800750398001e007800e8
:100ad000060007001e0078001a0007001e007800bc
:100ae000b70007000080fa00000006000200fa00cc
:100af000000f78001e027800f4029000640290005b
:100b0000462bdd004a22de0004027300ca2ade0002
:100b10000400be00cffe07000002be00929929002b
:100b2000931424000400be000aff07000002be0068
:100b30001e03780044039800550398000080fa00d3
:100b4000000006000200fa00881f7800000f7800fd
:100b50001e02780044039000d40390001e02780027
:100b60001402be0018c0b3000401be000600be009f
:100b7000b6fe070000027800e00f520001003c00c2
:100b80000044eb00e04f5400150032001e027800d4
:100b9000d4029000440290001e037800048bbe0033
:100ba0001e0278001402be000401be0090992900c4
:100bb0009114240061fe07000002be000200200024
:100bc000832c24000400be00e2fe07000002be00e9
:100bd0001e037800240398003503980005003700b1
:100be0001e027800d4029000440290001e03780098
:100bf000048bbe004f0478000080fa00000006005d
:100c00000200fa00000f780002e2a90002c2a90067
:100c100002a2a8000282a900141080000400a10012
:100c20000410a0000420a0000430a00014108800cc
:100c300004e2a9000402a80006c2a80006a2a800b7
:100c40000682a8000662a9000642a9000622a900a1
:100c50000602a9001e027800140278006f426200aa
:100c60000482fb00541088000080fa000000060097
:100c70000000fa0000000000241080006102620001
:100c8000e00f5200fcff3a0000000000241080003a
:100c900064026200e00f5200fcff3a000000000016
:100ca0002410800068026200e00f5200fcff3a004e
:100cb000000000002410800070026200e00f52006b
:100cc000fcff3a0000000000441080006402620053
:100cd000e00f5200fcff3a000080fa00000006001e
:100ce0000200fa00000f7800141680000442780019
:100cf000614262009e0278000482fb006102620091
:100d000095039000e6ff2f00068363000602720041
:100d100094029800141680000402d100614262001f
:100d200004424200614262009e0278000482fb009d
:100d30006102620095039000e6ff2f0006836300c6
:100d40000602720094029800141680004222de000f
:100d500061426200250020000522dd006142620040
:100d60009e0278000482fb006102620095039000fd
:100d7000e6ff2f00068363000602720094029800cb
:100d8000141680004322de0061426200350020001c
:100d90000522dd00614262009e0278000482fb00b1
:100da0006102620095039000e6ff2f000683630056
:100db00006027200940298000080fa00000006000b
:100dc0000200fa00881f7800000f78001e027800e9
:100dd000040a90000402d100614262000482fb0018
:100de000e10f5200220032001e027800b40290008f
:100df0002402900018c0b30002002000030a24005f
:100e00000400be000ffe070000027800e00f520051
:100e1000010035000044eb00e04f540005003200b3
:100e20009e027800050a90000400a100840a980040
:100e3000040037009e027800050a90000400a0001c
:100e4000840a98001e027800040a90006142620041
:100e50000482fb006102620016168000e5ff2f008d
:100e60008502630005027200141688003500370001
:100e70001e027800b40290002402900018c0b30053
:100e800002002000030a24000400be00edfd07005c
:100e900000027800e00f5200010035000044eb0032
:100ea000e04f5400050032009e027800050a9000d1
:100eb0000400a100840a9800160037001e02780082
:100ec000b40290002402900018c0b3000200200079
:100ed000030a24000400be00dcfd070000027800c5
:100ee000e00f520001003d000044eb00e04f5400d1
:100ef000080032001416800061026200e00f520008
:100f000004003a009e027800050a90000400a00048
:100f1000840a98001e027800040a90006142620070
:100f20000482fb0061026200040242001616800087
:100f3000d5ff2f0085026300050272001416880099
:100f4000000000004f0478000080fa000000060056
:100f50000200fa00000f78000080fa00000006008e
:100f60000600fa00000f7800110798002207980089
:100f70002e02900014029000e14262001e027800ee
:100f8000140290006142620084cf52000e003200d1
:100f90000028200001002000670007002e029000ba
:100fa00014029000614262009e0290000482fb00e5
:100fb0006102620095039000e6ff2f000683630044
:100fc00006027200940298002e0290001402900013
:100fd0000474a1008482fb001e02780014029000b9
:100fe0000474a1000482fb00848f52000e003400c0
:100ff0001e029000140290000474a1000442e80054
:101000000474a1009e0290000483fb00f4072000fa
:10101000040263009503900006f82f000683630026
:1010200006027200940298002e02900014029000b2
:101030000474a1008482fb001e0278001402900058
:101040000474a1000482fb00848f52000e003d0056
:101050001e029000140290000474a1000442e900f2
:101060000474a1009e0290000483fb00f40720009a
:10107000040263009503900006f82f0006836300c6
:101080000602720094029800000a2000010020006d
:10109000290007000080fa00000006000200fa00a4
:1010a000000f780004108000044278009e0278004f
:1010b000844a78000080fa00000006000000fa0070
:1010c000030007000d0007000080fa000000060082
:1010d0000000fa0004122100143a88000002eb001c
:1010e000243a88000002eb00443a88000400210002
:1010f000743a88000080fa00000006000000fa0040
:10110000f4002000041688000002eb000427880089
:101110000002eb00241688000002eb004416880051
:101120000002eb00142788000002eb006416880020
:081130000080fa000000060037
:020000040000fa
:10113800f03fb1000180b10006003500ee03090060
:1011480000000000403fb1000180b100fbff3d00fe
:101158001000b000203fb0000200350000800900f8
:08116800000000000000060079
:020000040000fa
:101170000000fa00d1ff0700040078000080fa00a8
:041180000000060065
:020000040000fa
:041184000000000067
:020000040000fa
:0200000401f009
:04000000ffff0000fe
:020000040000fa
:0200000401f009
:04000800ffff0000f6
:020000040000fa
:0200000401f009
:04000c00d9ff000018
:020000040000fa
:0200000401f009
:04001000fbff0000f2
:020000040000fa
:0200000401f009
:040014004fff00009a
:020000040000fa
:0200000401f009
:040018007fff000066
:020000040000fa
:0200000401f009
:04001c00ffff0000e2
:00000001FF
