:020000040000fa
:080000000002040000000000f2
:020000040000fa
:100008009a0200009a0200009a0200009a02000078
:100018009a0200009a0200009a0200009a02000068
:100028009a0200009a0200009a0200009a02000058
:100038009a0200009a0200009a0200009a02000048
:100048009a0200009a0200009a0200006609000065
:100058009a0200009a0200009a0200009a02000028
:10006800b60500009a0200009a0200009a020000f9
:100078009a0200009a0200009a0200009a02000008
:100088009a0200009a0200009a0200009a020000f8
:100098009a0200009a0200009a0200009a020000e8
:1000a8009a0200009a0200009a0200009a020000d8
:1000b8009a0200009a0200009a0200009a020000c8
:1000c8009a0200009a0200009a0200009a020000b8
:1000d8009a0200009a0200009a0200009a020000a8
:1000e8009a0200009a0200009a0200009a02000098
:1000f8009a0200009a0200009a0200009a02000088
:100108009a0200009a0200009a0200009a02000077
:100118009a0200009a0200009a0200009a02000067
:100128009a0200009a0200009a0200009a02000057
:100138009a0200009a0200009a0200009a02000047
:100148009a0200009a0200009a0200009a02000037
:100158009a0200009a0200009a0200009a02000027
:100168009a0200009a0200009a0200009a02000017
:100178009a0200009a0200009a0200009a02000007
:100188009a0200009a0200009a0200009a020000f7
:100198009a0200009a0200009a0200009a020000e7
:1001a8009a0200009a0200009a0200009a020000d7
:1001b8009a0200009a0200009a0200009a020000c7
:1001c8009a0200009a0200009a0200009a020000b7
:1001d8009a0200009a0200009a0200009a020000a7
:1001e8009a0200009a0200009a0200009a02000097
:0801f8009a0200009a020000c7
:020000040000fa
:100208009a0200009a0200009a0200009a02000076
:100218009a0200009a0200009a0200009a02000066
:100228009a0200009a0200009a0200009a02000056
:100238009a0200009a0200009a0200009a02000046
:100248009a0200009a0200009a0200006609000063
:100258009a0200009a0200009a0200009a02000026
:10026800b60500009a0200009a0200009a020000f7
:100278009a0200009a0200009a0200009a02000006
:100288009a0200009a0200009a0200009a020000f6
:100298009a0200009a0200009a0200009a020000e6
:1002a8009a0200009a0200009a0200009a020000d6
:1002b8009a0200009a0200009a0200009a020000c6
:1002c8009a0200009a0200009a0200009a020000b6
:1002d8009a0200009a0200009a0200009a020000a6
:1002e8009a0200009a0200009a0200009a02000096
:1002f8009a0200009a0200009a0200009a02000086
:100308009a0200009a0200009a0200009a02000075
:100318009a0200009a0200009a0200009a02000065
:100328009a0200009a0200009a0200009a02000055
:100338009a0200009a0200009a0200009a02000045
:100348009a0200009a0200009a0200009a02000035
:100358009a0200009a0200009a0200009a02000025
:100368009a0200009a0200009a0200009a02000015
:100378009a0200009a0200009a0200009a02000005
:100388009a0200009a0200009a0200009a020000f5
:100398009a0200009a0200009a0200009a020000e5
:1003a8009a0200009a0200009a0200009a020000d5
:1003b8009a0200009a0200009a0200009a020000c5
:1003c8009a0200009a0200009a0200009a020000b5
:1003d8009a0200009a0200009a0200009a020000a5
:1003e8009a0200009a0200009a0200009a02000095
:0803f8009a0200009a020000c5
:020000040000fa
:100400002f8020000e9f20000e01880000000000b9
:10041000000020000000e000020032000001200087
:10042000200288000c000700009920000100200035
:1004300011000700000020000000e0000200320070
:100440000000020000000000880902000000000017
:100450000040da000000fe004440a9000000200037
:100460000000e0000300320000002000a00188002e
:100470004440a80000000600910188008000780038
:100480000000eb0015003700e280400032a0b4000d
:100490009101ba00e280400032a0b4009102ba009b
:1004a000e280400032a0b4000002eb00472bde00e7
:1004b000f507b200602ce10004003a000059eb009f
:1004c0008301e900fdff3e00040037006128e100e0
:1004d000010032000082eb00040007001101ba00a5
:1004e0000200e000e8ff3a00000006003159ba00bf
:1004f0008301e9000c0032002159ba008301e900b0
:10050000080032000400e00003003a00e2804000ee
:1005100032a0b400f5ff370011d9ba008301e90019
:10052000faff3a008100e800e180400032a0b40008
:10053000000006000040da000000fe00889fbe00b8
:100540008a9fbe008c1f78006a000700710033008c
:1005500003866c006450e1002e0032006420e1004c
:10056000330032006150e1002f0032006120e100d1
:100570003100320085855500eb07b00009002000ee
:1005800008042000050037000804440089844c005a
:100590000a0031000603430087834b00000153002b
:1005a00081815b00f8ff33000203be000800a00059
:1005b0000804440089844c00f6ff3900c639dd0088
:1005c0008301730001003200130020008904d10070
:1005d0000884d3000998a300050032000800a70092
:1005e0000300a0008904d1000884d3008b05e80033
:1005f0008904d1000884d3000001eb000281d200fd
:100600001600070001f0a1000cf0a70001f0a00007
:10061000490037006420e1004b0032000801be00b1
:100620000200be00f7ff37006120e1004600320003
:100630006000b800f3ff37000000200001f8270039
:10064000f0ff37001400200076003700f4ff2f0081
:10065000740037006011b8008d0037008100200061
:10066000618055000b003d000b00200061fe2f0053
:100670000100e1001d00340082817100610164000d
:100680008904d1000884d3000000e800faff3a0092
:10069000710020006100640003007000020060002f
:1006a0000900320061044400e0844c000988a50080
:1006b000050032008b05e8006808e10002003a00fe
:1006c0008904d1000884d300f20f20000258e10011
:1006d00005003d00c75ddd00f907b20089807500a7
:1006e00008007800000006000bf827008b00780057
:1006f000000005000004be00940007000003be00d7
:100700000405be000200be0090000700844f750083
:10071000000006000200be006450e1000500360043
:100720006420e100020036000968a30001003a00dd
:100730000800be000160a0004f0678004f05be0013
:100740004f04be0000000600f0ff2f00f1ff27005d
:10075000f9ff3700889fbe008a9fbe008c1f78007b
:10076000e4ff0700ebff330003866c006450e100f8
:10077000240032006420e100270032006150e100d3
:10078000220032006120e100210032008b8542000e
:10079000eb07b1000134b800003ab8000804420089
:1007a00089844a00013ab8000030b80088804000cf
:1007b00009014a0004003300000040008180480025
:1007c000020149008b05e900c909dd0083017000c1
:1007d0000100320013002000c814de004814dd00c0
:1007e0004709de001200b200c808de00088470006d
:1007f0009aff070001f0a1000cf0a70001f0a00093
:10080000cdff37006120e100cfff32000801be00bc
:100810000200be00f7ff37006150e100fcff3a0024
:10082000c9ff3700889fbe008a9fbe00841f7800e2
:10083000b0ff07004f00780011003300f0ff2f00d9
:10084000838f6c0006003b00040565000a00a700ca
:100850000800370009f0a60010002000080037004b
:10086000820f5400838f5c000300390010002000c9
:1008700001003e000000200009f0a7000000ea008f
:100880004f05be004f04be000000e000000006005f
:10089000889fbe008a9fbe00008270000402710023
:1008a00004827100260032000004be000200be0077
:1008b0006011b8006b092000950220000182cf0072
:1008c0000a0039000541b1000082cf00070039005d
:1008d0000541b1000982cf00040039000541b10093
:1008e0000882cf00010039000541b10005425200e5
:1008f000120032000a003b00828171006101640035
:100900008100d1000080d3008984d3000884d30003
:100910008b05e8000442e800f7ff3a0007003700c3
:100920000804440089844c0000004800818048008d
:100930008b05e9000442e900f9ff3a0047ff070090
:100940004f05be004f04be0000000600c70ade00cf
:10095000f107b200f50fb20008003200e1cf42000b
:10096000020032000170a00024000500810f700019
:10097000010032000408050044000500810f7000ea
:1009800002003a00140005008502e9000000400062
:1009900081c04800fcff3b000170a000240005005e
:020000040000fa
:1009a0000200fa00000f780002e2a90002c2a900ca
:1009b00002a2a8000282a900141080000400a10075
:1009c0000410a0000420a0000430a000141088002f
:1009d00004e2a9000402a80006c2a80006a2a8001a
:1009e0000682a8000662a9000642a9000622a90004
:1009f0000602a9001e007800240007001e027800ed
:100a0000140278006f4262000482fb00040242007c
:100a1000541088000080fa00000006000000fa0070
:100a2000000000002410800061026200e00f52000c
:100a3000fcff3a0000000000241080006402620005
:100a4000e00f5200fcff3a0000000000241080007c
:100a500068026200e00f5200fcff3a000000000054
:100a60002410800070026200e00f5200fcff3a0088
:100a7000000000004410800064026200e00f520099
:100a8000fcff3a000080fa00000006000200fa00b5
:100a9000000f780014168000044278006142620062
:100aa0009e0278000482fb006102620095037800d8
:100ab000e6ff2f000683630006027200840a7800b6
:100ac000141680000402d100614262000442420018
:100ad000614262009e0278000482fb0061026200b3
:100ae00095037800e6ff2f0006836300060272007c
:100af000840a7800141680004222de0061426200ff
:100b0000250020000522dd00614262009e0278007f
:100b10000482fb006102620095037800e6ff2f006b
:100b20000683630006027200840a780014168000af
:100b30004322de0061426200350020000522dd0014
:100b4000614262009e0278000482fb006102620042
:100b500095037800e6ff2f0006836300060272000b
:100b6000840a78000080fa00000006003600f800d1
:100b7000809fbe00829fbe00849fbe00869fbe00f5
:100b80000200fa004410800064026200e00f52008c
:100b900031003a0045108000040220000482620007
:100ba000e00f520004003a0004108000040f7800a7
:100bb0009aff0700280037000410800004427800e4
:100bc0006142620061426200614262000482fb0095
:100bd0006102620006408000e5ff2f00850263008d
:100be000050272000440880005108000e403200024
:100bf000048262000402d100044278007f42620055
:100c00000482fb007f026200040242000640800072
:100c100015fc2f0085026300050272000440880065
:100c200005108000040c2000048262004622de00d1
:100c300004427800634262000482fb0063026200a7
:100c40004622dd0006408000f5f32f008502630098
:100c500005027200044088000080fa004f03be00c5
:100c60004f02be004f01be004f00be003600f9002b
:100c7000004006000000fa0021e3a80021a3a9001b
:100c8000041980000480a1000490a10004198800c8
:100c9000041980000450a0000460a0000470a000ab
:100ca000041988002043a8002023a8002003a900dd
:100cb00023a3a90023c3a90023e3a9002383a90038
:100cc0002343a900141980000420a0000430a100cf
:100cd0000440a1000450a100141988002203a900b7
:100ce00025e3a90025198000f40f2e0084826200fc
:100cf00004102000050272002419880014c0b300fb
:100d00000400780024e3b7000080fa000000060029
:100d10000200fa00004f780029e3a8001e42780084
:100d20006f4262000482fb006f0262004822dd0015
:100d300046198000f50f2f0085026300050272003e
:100d40004419880028e3a8000080fa00000006008b
:100d50000000fa002003a800000000000419800031
:100d600061026200e00f5200fcff3a000080fa00ce
:100d7000000006000400fa00000f780021479800e8
:100d80002e409000e2ff0700f1ff070004188000ea
:100d9000050020001e037800640398007503980086
:100da0001e007800060007001e00780025000700de
:100db0001e007800520007000080fa0000000600c4
:100dc0000200fa00000f78001e027800f402900082
:100dd000640290000400be001efe07000002be0078
:100de00002002000034824000400be00d3fd0700d9
:100df0000002be0032332300330524000400be008d
:100e000054fe07000002be0002002c0083522400a2
:100e10000400be00c9fd07000002be00020027005a
:100e2000636424000400be004afe07000002be0006
:100e30001e03780044039800550398000080fa00d0
:100e4000000006000200fa00881f7800000f7800fa
:100e50001e02780044039000d40390001e02780024
:100e60001402be0018c0b3000401be000600be009c
:100e7000f4fd070000027800e00f52000100350089
:100e80000044eb00e04f5400150032001e027800d1
:100e9000d4029000440290001e037800048bbe0030
:100ea0001e0278001402be009299290093142400b7
:100eb0000400be00a1fd07000002be0002002000e9
:100ec000832c24000400be0022fe07000002be00a6
:100ed0001e037800240398003503980005003700ae
:100ee0001e027800d4029000440290001e03780095
:100ef000048bbe004f0478000080fa00000006005a
:100f00000200fa00881f7800000f78001e027800a7
:100f1000040a90000402d100614262000482fb00d6
:100f2000e10f5200230032001e027800b40290004c
:100f30002402900018c0b30002002000030a24001d
:100f40000400be00bffd070000027800e00f520061
:100f5000010035000044eb00e04f54000500320072
:100f60009e027800050a90000400a100840a9800ff
:100f7000040037009e027800050a90000400a000db
:100f8000840a98001e027800040a90006142620000
:100f90000482fb006102620016168000e5ff2f004c
:100fa000850263000502720014168800c222a9009f
:100fb000350037001e027800b40290002402900031
:100fc00018c0b30002002000030a24000400be0081
:100fd0009cfd070000027800e00f52000100350080
:100fe0000044eb00e04f5400050032009e02780000
:100ff000050a90000400a100840a9800160037003a
:101000001e027800b40290002402900018c0b300c1
:1010100002002000030a24000400be008bfd07002c
:1010200000027800e00f520001003d000044eb0098
:10103000e04f540008003200141680006102620084
:10104000e00f520004003a009e027800050a90006a
:101050000400a000840a98001e027800040a900090
:10106000614262000482fb006102620004024200ed
:1010700016168000d5ff2f0085026300050272005e
:1010800014168800000000004f0478000080fa0069
:10109000000006000200fa00000f78000080fa004d
:1010a000000006000600fa00000f78001107980003
:1010b000220798002e029000140278004622de00db
:1010c000e34262001e027800140278004622de002d
:1010d0006342620084cf52001000320000282000da
:1010e000010020007c0007002e029000140278000e
:1010f0004622de00634262009e0290000482fb00f2
:10110000630262004622dd0095037800f6f32f00ab
:101110000683630006027200840a78002e029000a3
:10112000140278000402d1007f4262008482fb0036
:101130001e027800140278000402d1007f4262008f
:101140000482fb00848f52000f0034001e029000c6
:10115000140278000402d1007f4262000442e800d9
:101160007f4262009e0290000482fb007f026200c8
:10117000040242009503780016fc2f0006836300ea
:1011800006027200840a78002e0290001402780091
:101190000402d1007f4262008482fb001e027800bc
:1011a000140278000402d1007f4262000482fb0036
:1011b000848f52000f003d001e0290001402780040
:1011c0000402d1007f4262000442e9007f426200d3
:1011d0009e0290000482fb007f0262000402420033
:1011e0009503780016fc2f00068363000602720048
:1011f000840a7800000a2000010020003600070061
:101200000080fa00000006000200fa00000f7800db
:101210001e02780005408000050a78000080fa0070
:10122000000006000000fa00030007000d000700a0
:101230000080fa00000006000000fa0004122100fd
:10124000143a88000002eb00243a88000002eb0008
:10125000443a880004002100743a88000080fa00b3
:10126000000006000000fa00f400200004168800c8
:101270000002eb00042788000002eb00241688001f
:101280000002eb00441688000002eb0014278800df
:101290000002eb00641688000080fa0000000600df
:1012a0000000fa0021e2a80021a2a9002182a900e1
:1012b0002162a9000080fa00000006000200fa0086
:1012c000004f78000080fa00000006000000fa00dd
:0812d0000080fa000040060056
:020000040000fa
:1012d800f03fb1000180b10006003500ee030900bf
:1012e80000000000403fb1000180b100fbff3d005d
:1012f8001000b000203fb000020035000080090057
:081308000000000000000600d7
:020000040000fa
:101310000000fa00040078000080fa0000000600d7
:020000040000fa
:1013200000080000020000000000000000000000b3
:020000040000fa
:0200000401f009
:04000000ffff0000fe
:020000040000fa
:0200000401f009
:04000800ffff0000f6
:020000040000fa
:0200000401f009
:04000c00d9ff000018
:020000040000fa
:0200000401f009
:04001000fbff0000f2
:020000040000fa
:0200000401f009
:040014004fff00009a
:020000040000fa
:0200000401f009
:040018007fff000066
:020000040000fa
:0200000401f009
:04001c00ffff0000e2
:00000001FF
